:020000040800F2
:10000000281E0020311E0008ED010008EF01000845
:10001000F3010008F7010008FB01000800000000E0
:10002000000000000000000000000000FF010008C8
:100030000102000800000000030200080502000899
:100040004B1E00084B1E00084B1E00082918000814
:100050004B1E00084B1E00084B1E00084B1E0008DC
:100060004B1E00084B1E00084B1E00084B1E0008CC
:100070004B1E00084B1E00084B1E00084B1E0008BC
:100080004B1E00084B1E00084B1E00084B1E0008AC
:100090004B1E00084B1E00084B1E00084B1E00089C
:1000A0004B1E00084B1E00084B1E00084B1E00088C
:1000B0004B1E0008751D0008DB1D00084B1E0008C4
:1000C0004B1E00084B1E00084B1E00084B1E00086C
:1000D0004B1E000859120008151400081B150008D3
:1000E0004B1E0008851800084B1E00084B1E000818
:1000F0004B1E00084B1E00084B1E00084B1E00083C
:100100004B1E00084B1E00084B1E00084B1E00082B
:100110004B1E00084B1E00084B1E00084B1E00081B
:100120004B1E00084B1E00084B1E00084B1E00080B
:10013000DFF80CD005F050FF0048004755010008DB
:10014000281E002010B5002026494870087000F0D5
:100150004DFB10BD4FF4FA7000F04DFF4FF4A0605E
:1001600001F078FE00F067FF00F097FF4FF41650A3
:1001700001F02EF84FF4165001F00DF94FF4E13074
:1001800001F084F901F054FA00F04BFB42F20F71D8
:1001900041F61F4001F0B2FD4DF2D76141F61F401C
:1001A00001F0CAFD01F053FD04F0CDFDFFF7CAFFD9
:1001B00016E004F041FD012000F01DFF0A48008810
:1001C000401C09490880084600884EF66021884294
:1001D00006DD00F0AAFA00F009FB002002490880C1
:1001E000E7E700001800002000000020704700BF73
:1001F000FEE700BFFEE700BFFEE700BFFEE7704777
:1002000070477047704700000CB5002001900090C7
:100210006C48006840F480306A49086000BF694853
:10022000006800F4003000900198401C0190009894
:1002300020B94FF6FF7101988842F0D161480068FB
:1002400000F4003010B10120009001E00020009087
:100250000098012843D15C48006840F010005A49DA
:1002600008600846006820F003000860084600683F
:1002700040F0020008605348406852494860084610
:10028000406848600846406840F48060486008461E
:10029000406820F47C1048600846406840F4E8104C
:1002A00048600846006840F08070086000BF45481C
:1002B000006800F000700028F9D04248406820F043
:1002C0000300404948600846406840F0020048602A
:1002D00000BF3C48406800F00C000828F9D10CBD74
:1002E00010B5FFF791FF10BD10B53648006840F01B
:1002F00001003449086008464068344908403149E3
:10030000486008460068324908402E49086008469F
:10031000006820F4802008600846406820F4FE0051
:1003200048604FF41F008860FFF7DAFF4FF000606D
:100330002849086010BD10B5002100200022214B83
:100340005B6803F00C0121B1042906D0082928D1EB
:1003500007E0214B214C236027E01F4B1F4C2360FB
:1003600023E0184B5B6803F47010164B5B6803F4D2
:100370008032022303EB904022B9194B4343174CC0
:1003800023600DE00F4B5B6803F4003323B1144B83
:100390004343124C236003E00F4B43430F4C236055
:1003A00003E00D4B0D4C236000BF00BF054B5B68A5
:1003B000C3F303130B4CE15C084B1B68CB40074CA9
:1003C000236010BD00100240002002400000FFF832
:1003D000FFFFF6FE08ED00E000127A0004000020A6
:1003E00000093D000800002070B504460D460026B7
:1003F0000DE03046721CD6B2295CAA4802F056FACB
:1004000000BF8021A74802F0BFFA0028F9D0A64219
:10041000EFDB70BDF0B5CBB004460E4617460025A5
:100420005A208DF80000A5208DF80100601CC0B294
:100430008DF80200822E03D182208DF8030004E0A3
:10044000832E02D183208DF80300002505E0795D1D
:10045000281D0DF80010681CC5B2A542F7DB211D50
:10046000C8B26946FFF7C0FF4BB0F0BDF0B599B018
:1004700005460E461746280A8DF80000E8B28DF8AA
:100480000100002405E0395DA01C0DF80010601C7F
:10049000C4B2B442F7DBB11CC8B26A468221FFF78E
:1004A000B9FF19B0F0BD38B505460C46200A8DF8E5
:1004B0000000E0B28DF801006A4602212846FFF7ED
:1004C000D5FF38BDF0B58DB007460E4615462E2136
:1004D00001A805F06BF9744800680090002400BF83
:1004E00004E0305D0DF80400601CC4B2AC42F8DBDF
:1004F0006A4629463846FFF7B9FF0DB0F0BD3EB554
:10050000044603208DF8000010208DF801005A20C9
:100510008DF80200A5208DF8030001208DF804005D
:1005200000208DF805008DF8060001208DF80700E9
:10053000200A8DF80800E0B28DF809006A46822191
:100540000A20FFF767FF3EBDFEB507460E4615467B
:10055000002400BF04E0305D0DF80400601CC4B24C
:10056000AC42F8DB6A4629463846FFF77FFFFEBDFE
:1005700038B505460C46200A8DF80000E0B28DF82B
:1005800001006A4602212846FFF770FF38BD38B5E2
:1005900005460C46200A8DF80000E0B28DF80100F7
:1005A0006A4602212846FFF761FF38BDF8B50646C6
:1005B0000D4614468DF800608DF80150200A8DF824
:1005C0000200E0B28DF803006A4604218220FFF7A2
:1005D0004DFFF8BD38B504465A208DF800000120C3
:1005E0008DF80100200A8DF80200E0B28DF80300BA
:1005F0006A4604218420FFF739FF38BD2DE9FC4706
:1006000004460D4616461F46DDE90B9ADDF82880A4
:100610008DF800408DF801508DF802608DF8037060
:100620008DF804808DF805908DF806A000208DF8D7
:1006300007006A4608211020FFF718FFBDE8FC8775
:100640002DE9F04104460027B84620785A2818D1F1
:100650006078A52815D1A778E078832811D187B1D3
:100660006079217940EA012694F80680B8F1000FFC
:1006700003D0207AE17940EA01252946304600F08E
:10068000EEF9BDE8F08138B504460D46200A8DF834
:100690000000E0B28DF801006A4682210520FFF7D4
:1006A000B9FE38BD004800409486000830B50246C7
:1006B0000B46002010E012F8014B6040002109E0D9
:1006C00000F001041CB18C2484EA600000E04010BA
:1006D0004C1CE1B20829F3DB1C1EA3F10105ABB2EF
:1006E000E9D130BD70B505460C4601F064F98820AB
:1006F00001F00FFA00BF01F09FF90028FBD1284656
:1007000001F007FA00BF01F097F90028FBD120465D
:1007100001F0FFF900BF01F08FF90028FBD101F0D3
:100720006CF9052000F067FC70BD1CB5002001903D
:10073000009026212120FFF7D5FF01F03CF9892008
:1007400001F0E7F900BF01F077F90028FBD105209F
:1007500000F03AFC00240EE0052C05D1002001F049
:1007600005FA3249085504E0012001F0FFF92F494C
:100770000855601CC4B2062CEEDB01F03EF92B4894
:1007800000788DF80400294840788DF80500274846
:10079000C0788DF80000254800798DF801009DF89B
:1007A00005109DF8040001EB0020AF2148434FF6EF
:1007B000FF7190FBF1F02D381D4908709DF8011074
:1007C0009DF8000001EB0020642148434FF6FF71C3
:1007D00090FBF1F01749087000208DF804008DF8A7
:1007E00005008DF800008DF801001CBD10B5104803
:1007F000017845F20400FFF7BBFE0E48017845F290
:100800000600FFF7B5FE0A48007800EB80004100C3
:10081000012004F0D2F807480178022004F0CDF856
:1008200010BD10B501F0AEF810BD00001D00002095
:10083000250000202600002010B5FE48807860B911
:100840000120FC498870012145F21900FFF79FFE45
:100850000121152004F081F80BE00020F549887093
:10086000002145F21900FFF792FE0021152004F047
:1008700074F810BD10B5EF48007860B90120ED495B
:100880000870012145F24000FFF781FE012165203B
:1008900004F063F80BE00020E6490870002145F2FF
:1008A0004000FFF774FE0021652004F056F810BDEB
:1008B00010B5E048407840B90120DE494870012178
:1008C00045F24100FFF763FE07E00020D949487078
:1008D000002145F24100FFF75AFE10BD10B5D64881
:1008E000007840B90120D449087001214FF4A2409A
:1008F000FFF74DFE07E00020CF49087000214FF4BC
:10090000A240FFF744FE10BD10B5CC48007840B9B6
:100910000120CA49087001214FF4A440FFF737FEB7
:1009200007E00020C549087000214FF4A440FFF7FC
:100930002EFE10BD10B5C248007840B90120C04954
:10094000087001214FF4A640FFF721FE07E00020C8
:10095000BB49087000214FF4A640FFF718FE10BDF8
:1009600010B5B848007840B90120B6490870012197
:100970004FF4A840FFF70BFE07E00020B1490870D4
:1009800000214FF4A840FFF702FE10BD70B50446E9
:100990000025272C4CD2DFE804F014151718191A7B
:1009A0001B1C1D1F2122242627292A2C2E2F3132E1
:1009B00034353637393A3C3E404142444546474853
:1009C000490000BF002535E000BF00BF00BF00BFE9
:1009D00000BF00BF01252DE004252BE000BF062548
:1009E00028E0072526E000BF082523E000BF0925F1
:1009F00020E00A251EE000BF0C251BE000BF1125EA
:100A000018E000BF00BF00BF122513E000BF132590
:100A100010E014250EE015250CE000BF00BF1625E0
:100A200008E000BF00BF00BF00BF00BF172501E006
:100A3000162500BF00BF29464FF4A040FFF7A7FDD1
:100A400070BD10B504462046FFF7A0FF7E4800EBBE
:100A5000C401082245F23000FFF734FD10BD70B527
:100A600004460D4645F25101601A8C4239D013DC20
:100A700045F24401A4EB01008C421CD007DCA4F534
:100A80008040A0F5815098B123282ED12CE0012878
:100A900014D00C2829D120E0B02812D0B0F5D87F8E
:100AA00012D0B0F52C7F12D0B0F56C7F1DD111E0C3
:100AB000FFF7C2FE19E0FFF7DDFE16E0FFF7F8FED4
:100AC00013E0FFF70BFF10E0FFF71EFF0DE0FFF74D
:100AD00031FF0AE0FFF744FF07E0002004F04FF980
:100AE00003E004F03FF900E000BF00BF00205149DF
:100AF000C87070BDF0B58DB005460E46174600248F
:100B00003421684604F052FE00BF04E0305D0DF869
:100B10000400601CC4B2BC42F8DB012D06D0022DDB
:100B20000BD0032D10D0042D1CD114E032226946C5
:100B300045F20110FFF7C6FC14E03222694645F287
:100B40000120FFF7BFFC0DE03222694645F201307B
:100B5000FFF7B8FC06E03222694645F20140FFF794
:100B6000B1FC00BF00BF0DB0F0BD2DE9FC5F3749FF
:100B7000488804F0E9FF80460022354B04F064FF0A
:100B800006464FF06632334B04F0ECFE044600227A
:100B90004FF0804304F0E6FE824605F053F80190E2
:100BA00000200090019805F009F804462A4A2B4BD2
:100BB00005F018F802D20020009076E0019804F0C9
:100BC000FDFF0446244A254B05F024F80BD8019874
:100BD00004F0F4FF0446224A224B05F003F802D247
:100BE0000120009061E0019804F0E8FF04461C4AEF
:100BF0001C4B05F00FF80BD8019804F0DFFF0446FA
:100C0000194A1A4B04F0EEFF02D2022000904CE089
:100C1000019804F0D3FF0446134A144B04F0FAFF82
:100C20002CD8019804F0CAFF04460022104B04F0AF
:100C3000D9FF1FE018000020800100208101002062
:100C4000820100208301002027000020A60100204F
:100C50000000B04066660A409A99999999990D40AA
:100C60006766666666660E403433333333330F404F
:100C70000000104002D20320009016E0019804F01A
:100C80009DFF04460022434B04F0C4FF0BD801989B
:100C900004F094FF0446404A404B04F0A3FF02D204
:100CA0000420009001E00520009045F20300009927
:100CB000FFF76DFCBDE8FC9F2DE9F14F009804F0B3
:100CC00043FF0646364A374B04F04CFE04460D46B9
:100CD0003548007804F038FF0646314A334B04F0BB
:100CE00041FE804622462B4604F095FD824604F0E4
:100CF0004CFFC0B2BDE8F88F2DE9F0412C490988BE
:100D0000A1F5FA6004F00FFF07460022294B04F01A
:100D10009BFE054604F096FF04460021204604F0A1
:100D2000ADFF11D0204604F01CFFC5B22846FFF7E6
:100D3000C3FF1D49087008460078401FC1B26422F5
:100D400019480078FFF732FCBDE8F08110B504F0D7
:100D500027F820B1012808D0022812D10BE0012188
:100D600045F20200FFF713FC11E0012145F20200F9
:100D7000FFF70DFC0BE0012145F20200FFF707FC35
:100D800005E0002145F20200FFF701FC00BF00BFB3
:100D900010BD000000001040676666666666104081
:100DA0009A9999999999C93F7F0100209999E93FAA
:100DB000A60100200000394070B5C0B0064601AA67
:100DC0000021304606F0EAFB0546002D39D0287890
:100DD000002836D166A1284606F044FC044606F0F9
:100DE000D1FB6449086064A1284606F03BFC044638
:100DF00006F0C8FB6149086061A1284606F032FC94
:100E0000044606F0BFFB5F4908705FA1284606F064
:100E100029FC044606F0B6FB5C4908705CA1284634
:100E200006F020FC044606F0ADFB5A4908705AA1B2
:100E3000284606F017FC044606F0A4FB5749087044
:100E400002E0012040B070BD2C464CB16068401CEF
:100E500030B16068401E606010B9204606F04EFB5D
:100E600000BF0020EEE72DE9F0414248008881B242
:100E700045F21000FFF77CFB4048008881B245F244
:100E80001400FFF775FB3F48007830B9042244A1F5
:100E900045F22000FFF758FB1FE03A480078012890
:100EA00006D1042240A145F22000FFF74DFB14E0DB
:100EB00034480078022806D104223DA145F22000E2
:100EC000FFF742FB09E02F480078032805D10422F0
:100ED00039A145F22000FFF737FB2C48007830B9E4
:100EE00004222FA145F22400FFF72EFB1FE0274824
:100EF0000078012806D104222BA145F22400FFF737
:100F000023FB14E021480078022806D1042228A1FE
:100F100045F22400FFF718FB09E01C48007803287D
:100F200005D1042224A145F22400FFF70DFB194945
:100F30000978C1F1640004F0F6FD0746204A214B10
:100F400004F010FD054604F020FE84B2214645F26F
:100F50001800FFF7A8FA11480078FFF7D0FA0F48F9
:100F6000017845F24200FFF703FBBDE8F081000085
:100F70006E690000840100206E6F0000880100206F
:100F8000736900008C010020736F00008D01002048
:100F90006D0000008E010020630000008F01002022
:100FA000422F7320000000004B422F73000000000E
:100FB0004D2F732000000000472F73200000000019
:100FC000CDCCCCCCCCCC0C4000EBC001C9004FF058
:100FD000E0225161002191610521116100BF4FF0B4
:100FE000E021096901F480310029F8D004214FF093
:100FF000E0221161704700B5034603E04FF47A70B8
:10100000FFF7E2FF181EA3F101018BB2F6D100BD7C
:1010100010B5044603E04FF47A70FFF7ECFF201E92
:10102000A4F101018CB2F6D110BD30BF704772B689
:10103000704762B6704710B501F028F94FF4803060
:1010400001F044F901F081F90446012C24D14FF458
:10105000E011000401F0A3F9002001F0BDF9A002A5
:1010600001F0C3F9002001F0C9F9022001F0ECFD04
:10107000102001F0FDFD012001F09DF900BF392095
:1010800001F047F90028FAD0022001F097F900BFDB
:1010900001F09DF90828FBD110BD08B503208DF89B
:1010A000000001208DF801008DF802008DF803008A
:1010B000684600F0D4FE1D208DF8000003208DF856
:1010C00001008DF8020001208DF80300684600F051
:1010D000C6FE1E208DF8000003208DF801008DF85B
:1010E000020001208DF80300684600F0B8FE2520BC
:1010F0008DF8000001208DF801008DF802008DF8B8
:101100000300684600F0ABFE26208DF800000120A9
:101110008DF801008DF802008DF80300684600F09C
:101120009EFE27208DF8000001208DF8010002208E
:101130008DF8020001208DF80300684600F08FFE54
:1011400008BD000000BF704770B504460D46FE485C
:10115000007838B90120FC49087040F22661FB484C
:1011600001F052FC00BFF948008800F04000002860
:10117000F9D0E0B2F549091D0880204670BD0FB4D2
:1011800010B59CB000241FA80190652102A8019B06
:101190001E9A05F0E3F90EE02046621CD4B202AAC2
:1011A000115CEA4801F082FB00BF4021E74801F0F2
:1011B000EBFB0028F9D0642C04DA02A804F001FB50
:1011C000A042E9D8002001901CB010BC5DF814FBCF
:1011D00010B586B00446012144F2040001F0C5F9BF
:1011E0004FF40070ADF8140003208DF8160018209D
:1011F0008DF8170005A9D64800F0FAFE4FF480607C
:10120000ADF8140004208DF8170005A9D04800F0AF
:10121000EFFE01940020ADF80800ADF80A00ADF82B
:101220000C00ADF810000C20ADF80E0001A9C74865
:1012300001F043FA012240F22551C44801F0D5FAE9
:10124000012240F22441C14801F0CFFA0121BF48F8
:1012500001F0BFFA06B010BD10B500BF4021BB4879
:1012600001F09FFB40F22551B84801F0A3FBB0B15B
:10127000B848007830B96421B74804F097FA0120E3
:10128000B4490870B148001D0088C1B2B348027863
:101290000078401CB14B1870AF4881544FE01021CA
:1012A000AA4801F071FB002849D0A8480088C4B2C0
:1012B000A648001D0088C4B20020A9490871A648AC
:1012C0000078332821D004DC31280AD0322830D1EC
:1012D00011E0342823D07B282BD19F48FFF76CFDE9
:1012E00027E09E480078801EC2B29B49491C01201D
:1012F000FFF700FC1DE099480078801EC2B29649B5
:10130000491C0220FFF7F6FB13E094480078801E8A
:10131000C2B29149491C0320FFF7ECFB09E08F485A
:101320000078801EC2B28C49491C0420FFF7E2FB02
:1013300000BF00BF0020894908708649087010BDB1
:101340000FB410B5CEB0002451A8019040F22D1179
:1013500002A8019B509A05F001F90EE02046621C9C
:10136000D4B202AA115C7F4801F0A0FA00BF40216C
:101370007C4801F009FB0028F9D0B4F5967F04DA27
:1013800002A804F01EFAA042E8D8002001904EB056
:1013900010BC5DF814FB10B586B004460121042092
:1013A00001F0E3F80121480401F0ECF80820ADF861
:1013B000140004208DF8170005A9654800F018FEF8
:1013C0000420ADF8140003208DF8160018208DF8C5
:1013D000170005A95E4800F00BFE01940020ADF84F
:1013E0000800ADF80A00ADF80C00ADF810000C20B4
:1013F000ADF80E0001A95B4801F05FF9012240F24F
:101400002551584801F0F1F90121564801F0E1F960
:1014100006B010BD10B540F22551524801F0CAFA8D
:1014200050B1504801F046FAC4B2204603F0CEFB5A
:1014300040214C4801F0B5FA10BD0FB410B59CB076
:1014400000241FA80190652102A8019B1E9A05F0A7
:1014500085F80EE02046621CD4B202AA115C424814
:1014600001F024FA00BF40213F4801F08DFA002826
:10147000F9D0642C04DA02A804F0A3F9A042E9D858
:10148000002001901CB010BC5DF814FB10B586B0B4
:1014900004460121082001F068F80121880401F0C8
:1014A00071F84FF40060ADF8140004208DF81700B7
:1014B00005A92E4800F09CFD4FF48060ADF81400A3
:1014C00003208DF8160018208DF8170005A927486D
:1014D00000F08EFD01940020ADF80800ADF80A0080
:1014E000ADF80C00ADF810000C20ADF80E0001A90D
:1014F0001D4801F0E2F8012240F225511A4801F09E
:1015000074F9012240F22441174801F06EF90121DB
:10151000154801F05EF906B010BD10B500BF4021BE
:10152000114801F03EFA40F225510F4801F042FA0D
:1015300078B30F48007830B964210E4804F036F9CA
:1015400001200B49087017E09A0100200038014083
:10155000000801409501002018040020940100209B
:10156000180000200044004000480040000C0140EA
:1015700099010020A80500201348001D0088C1B271
:10158000124802780078401C104B187010488154A3
:1015900018E0FFE710210C4801F0F6F990B10A4875
:1015A0000088C4B20848001D0088C4B20848C0784A
:1015B000832802D10648FFF743F80020034908704A
:1015C0000449087010BD0000004800409801002048
:1015D000A80500209901002010B501214FF0C0504E
:1015E00000F0D0FF012001F018FE01F027FA0120E1
:1015F00000F028FF00BF412000F08BFE0028FAD049
:101600004FF4807000F03AFF012000F03DFF01F040
:10161000DCFA01F0D1FA47F6FF7001F0A7FA01F009
:10162000CBFA0121084601F06BFA01F0C5FA10BDB2
:1016300010B501214FF0C05000F0A4FF042001F0CC
:1016400032FA4AF2A551884207D0FFF7C5FF4AF2A5
:10165000A551042001F01BFA13E07B2000F059FE95
:1016600010B97A2000F055FE00F0BDFF012000F017
:101670000BFF01F0AAFA0121084601F041FA01F03E
:101680009BFA10BDF0B503460C461546642093FB4B
:10169000F0F0C6B2642093FBF0F700FB1730C1B244
:1016A000132E02DD01F16400C1B20846CF1701EB31
:1016B000977701EBA707BAB2072092FBF0F700FB80
:1016C000172082B25719601EDFF880C21CF8000094
:1016D000384482B2CF1701EB9777BF10A1EB870791
:1016E0001FB9032C01DA501E82B2072092FBF0F7DB
:1016F00000FB1720C0B2F0BD0146CA1701EB927281
:101700009210A1EB820292B9642091FBF0F200FBEF
:10171000121050B94FF4C87091FBF0F200FB121098
:1017200008B9012070470020FCE70120FAE70020FB
:10173000F8E770B500260024002501F001FA0646FE
:101740008348B6FBF0F483480088A0423DD081492D
:101750000C8040F2B27510E02846FFF7CDFF40B193
:10176000B4F5B77F02D3A4F5B77404E0681C85B262
:1017700006E0A4F26D14681C85B2B4F5B67FEBD810
:1017800000BF75480580002516E073480088FFF704
:10179000B3FF30B1012D04D11D2C01D31D3C09E054
:1017A0000CE06E48405DA04203D86C48405D241AAE
:1017B00000E003E0681C85B21C2CE6D200BF681C68
:1017C00067490870601C674908706148B6FBF0F112
:1017D00000FB11644FF46160B4FBF0F062490870E3
:1017E0004FF46160B4FBF0F100FB11403C21B0FB11
:1017F000F1F05E4908704FF46160B4FBF0F100FB5A
:1018000011403C21B0FBF1F201FB12005849087075
:1018100054480278524801784F480088FFF732FF59
:1018200054490870002070BD0EB5012001F0F2F996
:1018300010B3FFF77EFFF8B94D4800784B4909789F
:10184000494A1278CDE90021029043490978A1F56F
:10185000FA61C8B247490B7842490A784049097889
:10186000FEF7CCFEFFF781F9FFF7FDFA424840781A
:10187000012801D1FFF740FA012001F0DBF901F066
:101880009BF90EBD10B5022001F0C4F9022001F051
:10189000D1F901F091F910BD2DE9F05F06460F4630
:1018A00090469946DDE90AAB0024B6F5FA6F03DBF2
:1018B00040F63300864202DD0120BDE8F09F40F291
:1018C000B2750AE02846FFF717FF10B12B48044411
:1018D00001E02B480444681C85B2B542F2DB781E57
:1018E000C7B2002510E01D48405D40F2A3214843E7
:1018F00004EBC0143046FFF7FFFE18B1012D01D1F3
:1019000013480444681C85B2BD42ECDBA8F1010019
:1019100040F2A321484304EBC014C9EB4910C0EBCB
:10192000092004EB0014CAEB0A1004EB80045C44A9
:10193000FFF752FE4AF2A551042001F0A8F8204614
:1019400001F007F901F038F90020B6E798860008A1
:1019500080510100A40100209C010020A486000801
:101960009E0100209F010020A0010020A101002075
:10197000A2010020A3010020180000200085E20140
:101980008033E10108B50121042000F0EEFD302094
:10199000ADF8000010208DF8030003208DF8020040
:1019A00069468B4800F024FB01208A4908608A4977
:1019B000C1F8900108BD10B58548006820F470207A
:1019C000834908600846006840F440300860012000
:1019D0008049091F08608049C1F894010420FFF77D
:1019E000F3FA00207B49091F08600420FFF7ECFA96
:1019F00000207949C1F8940110BD10B57448006801
:101A000020F47020724908600846006840F44030B5
:101A1000086000206F4908606F49C1F890010420F8
:101A2000FFF7D2FA01206B4908606B49C1F89001B9
:101A30000420FFF7C9FA10BD10B5002464480068FF
:101A400020F47020624908600846006840F40020D5
:101A5000086001205F49091F0860FFF7B5FA0120FF
:101A60005D49C1F89401FFF7AFFA07E0601CC4B20A
:101A7000FA2C03DDFFF7C1FF012010BD5548843863
:101A800000680028F2D15349086000BFF5E710B59F
:101A90000020504908604E48006820F470204C49EE
:101AA00008600846006840F44030086000204A4959
:101AB000C1F890010220FFF787FA0120454908602C
:101AC0000220FFF781FA00204349C1F8940110BDBC
:101AD00010B500203F4908603D48006820F47020A0
:101AE0003B4908600846006840F440300860012027
:101AF0003949C1F890010220FFF766FA0120354903
:101B000008600220FFF760FA00203349C1F8940111
:101B100010BD70B504462E48006820F470202C4992
:101B200008600846006840F44030086000202949F9
:101B30000860002517E0E0092649091F08606006D3
:101B4000040E0220FFF740FA01202349C1F8940156
:101B50000220FFF739FA00201E4908600220FFF733
:101B600033FA681CC5B2082DE5DB70BD70B50546BB
:101B700000241748006820F47020154908600846C2
:101B8000006840F400200860002616E0002011499B
:101B900008600220FFF718FA01200F49C1F89401EC
:101BA0006006040E0B488438006808B1601CC4B29B
:101BB0000120FFF709FA701CC6B2082EE6DB15B942
:101BC000FFF786FF01E0FFF762FF204670BD0000CF
:101BD00000080140940121420000214200B58BB071
:101BE000424801F09DFD424800904248019000208B
:101BF0000290022003900020049080200590400075
:101C00000690800007902020089000020990002094
:101C10000A906946354801F025FE0121334801F05C
:101C20004CFE0BB000BD08B50121084600F090FC49
:101C30000121480200F099FCC020ADF8000000200E
:101C40008DF8030069462C4800F0D2F908BD00B5B4
:101C500085B0FFF7E8FFFFF7C1FF002000900120EB
:101C60008DF804008DF805004FF4602002900020EC
:101C7000039002208DF8100069461D484C3801F091
:101C80004EFB03230122062119484C3801F0DFFBEB
:101C900003230222072116484C3801F0D8FB01210A
:101CA00013484C3801F072FB012111484C3801F007
:101CB00062FB0F484C3801F080FB00BF0C484C38E9
:101CC00001F080FB0028F9D109484C3801F084FB71
:101CD00000BF07484C3801F084FB0028F9D10121EE
:101CE00003484C3801F087FB05B000BD08000240F6
:101CF0004C240140A6010020000801403EB50546E5
:101D00000C460121022000F03DFCADF80450ADF876
:101D100000400020ADF80200ADF8060069464048DA
:101D200001F0FCFE012211463D4802F06EFA01214D
:101D30003B4802F04FFA3EBD3EB505460C46012138
:101D4000042000F01FFCADF80450ADF80040002066
:101D5000ADF80200ADF806006946324801F0DEFE3B
:101D6000012211462F4802F050FA01212D4802F0BD
:101D700031FA3EBD10B50121294802F0F4FC28B328
:101D80000121274802F000FD2748007801280DD1E5
:101D90002548C078401C2449C8700846C0781428DB
:101DA00004DB1420C8700820FEF714FC1E480079DC
:101DB000401C1D490871084600790A2807DB0A20E3
:101DC0000871012145F20100FEF7E1FB04E000216A
:101DD00045F20100FEF7DBFB10BD10B501211148F3
:101DE00002F0C1FCD0B101210E4802F0CDFCFEF79B
:101DF000ADFF0E48007864280BDB64200B490870A7
:101E000002F0CEFF032804D102F0CDFF00200749E5
:101E1000087006480078401C0449087010BD000096
:101E2000000400400008004018000020AA01002023
:101E30000648804706480047FEE7FEE7FEE7FEE764
:101E4000FEE7FEE7FEE7FEE7FEE7FEE7E902000841
:101E50003101000831490143314A1160704770B5C2
:101E6000002100230F22C47804B32D4C246804F40D
:101E7000E064C4F5E064210AC1F10403CA40447877
:101E800004FA03F18478144021430901254C0678B3
:101E9000A155047804F01F050124AC4005786D11AC
:101EA000AD0005F1E025C5F8004109E0047804F033
:101EB0001F050124AC401C4D0678761145F82640DC
:101EC00070BD1A4A0A400243154B1B1F1A60704727
:101ED00039B1134A121D12680243114B1B1D1A60BF
:101EE00006E00F4A121D126882430D4B1B1D1A603B
:101EF0007047042808D14FF0E021096941F004013E
:101F00004FF0E022116107E04FF0E021096921F074
:101F100004014FF0E0221161704700000000FA0553
:101F20000CED00E000E400E080E100E080FFFF1F36
:101F300010B50446CC48844208D10121042000F0A9
:101F40002EFB0021042000F02AFB46E0C748844213
:101F500008D10121082000F022FB0021082000F018
:101F60001EFB3AE0C248844208D10121102000F053
:101F700016FB0021102000F012FB2EE0BD48844229
:101F800008D10121202000F00AFB0021202000F0D0
:101F900006FB22E0B848844208D10121402000F02D
:101FA000FEFA0021402000F0FAFA16E0B34884421D
:101FB00008D10121802000F0F2FA0021802000F0F9
:101FC000EEFA0AE0AE48844207D10121801500F004
:101FD000E6FA0021A01500F0E2FA10BD10B50121CB
:101FE000084600F0DCFA0021012000F0D8FA10BD0C
:101FF0002DE9F041024600250026002000230024A0
:10200000002791F803C00CF00F0591F803C00CF005
:10201000100CBCF1000F03D091F802C04CEA05058A
:1020200091F800C0BCF1000F31D0146800202BE003
:102030004FF0010C0CFA00F3B1F800C00CEA0306F3
:102040009E4220D183004FF00F0C0CFA03F7BC43E3
:1020500005FA03FC4CEA040491F803C0BCF1280F14
:1020600006D14FF0010C0CFA00FCC2F814C00AE0D3
:1020700091F803C0BCF1480F05D14FF0010C0CFAE8
:1020800000FCC2F810C0401C0828D1D31460B1F87D
:1020900000C0BCF1FF0F34DD546800202EE000F1D9
:1020A000080C4FF0010808FA0CF3B1F800C00CEA74
:1020B00003069E4221D183004FF00F0C0CFA03F768
:1020C000BC4305FA03FC4CEA040491F803C0BCF1DC
:1020D000280F05D100F1080C08FA0CF8C2F814809A
:1020E00091F803C0BCF1480F07D100F1080C4FF084
:1020F000010808FA0CF8C2F81080401C0828CED35A
:102100005460BDE8F0814FF6FF71018002218170BB
:102110000421C17070470246002093680B400BB148
:10212000012000E0002070470146886880B27047B7
:1021300002460020D3680B400BB1012000E00020D4
:1021400070470146C86880B27047016170474161BD
:1021500070470AB1016100E041617047C16070479A
:102160004FF480320A4382618161826182698269AF
:10217000704702460020434B18684FF680731840A2
:1021800040EA021008433F4B186070473E49C8615F
:102190007047F0B50A46002300240021002500F016
:1021A0000046B6F1004F02D1364EF16901E0354EDE
:1021B0007168C0F3034583B200F44016B6F5401FC2
:1021C00008D121F070612F4E766826F070662D4F91
:1021D0007E6012E000F48016B6F5801F06D103265B
:1021E00006FA05F4A14341F0706106E0460D3601A0
:1021F00003FA06F6B14341F0706122B1460D360193
:1022000003FA06F6314300F00046B6F1004F02D162
:102210001C4EF16101E01B4E7160F0BD30B5002233
:102220008B071C0F0F2303FA04F2164B08338C1094
:1022300053F824309343134C08348D1044F8253060
:1022400023468C1053F824308C07240F00FA04F432
:1022500023430C4C08348D1044F8253030BD0A4916
:10226000DC3108607047000000080140000C0140AC
:10227000001001400014014000180140001C014002
:10228000002001400000014000002042E0480068BA
:1022900040F00100DE49086008464068DD4908401A
:1022A000DB49486008460068DB490840D8490860B7
:1022B0000846006820F4802008600846406820F442
:1022C000FE0048604FF41F0088607047D0490968DD
:1022D00021F48031CE4A11601146096821F4802131
:1022E0001160B0F5803F03D0B0F5802F0ED106E02D
:1022F000C749096841F48031C54A116007E0C44903
:10230000096841F4A021C24A116000E000BF00BF8B
:10231000704710B501460022002300204A11012A0F
:1023200002D1BB4C236806E0022A02D1B84C236AD2
:1023300001E0B74C636A01F01F02012494401C4085
:102340000CB1012000E0002010BD38B50020009045
:102350000024002500BF3120FFF7DBFF0546009871
:10236000401C00904FF6FF710098884201D0002D6C
:10237000F1D03120FFF7CDFF08B1012400E00024A7
:10238000204638BD01460020A14A106820F0F80020
:1023900040EAC10010607047A049086070470246DB
:1023A00000209B4B586820F47C1042EA010318433C
:1023B000974B58607047994908667047014600205E
:1023C000934A506820F003000843506070479048DB
:1023D000406800F00C007047014600208C4A5068AD
:1023E00020F0F00008435060704701460020884A02
:1023F000506820F4E06008435060704701460020B8
:10240000834A506820F4605040EAC1005060704731
:1024100029B17F4A527A02437D4B5A7204E07C4ACA
:10242000527A82437A4B5A7270477C49D83108609D
:10243000704701460020764A506820F44040084327
:10244000506070470021724A20321170704A82F841
:102450002010012802D004280AD104E001216C4A8E
:102460002032117005E00521694A2032117000E028
:1024700000BF00BF70476A49086070476449096A35
:102480000143634A116270476549443908607047E7
:1024900030B500210022002400235D4D6D6805F059
:1024A0000C0121B1042905D0082923D105E05D4D97
:1024B000056022E05B4D05601FE0554D6D6805F439
:1024C0007012534D6D6805F48034022505EB92427D
:1024D0001CB9554D554305600BE04D4D6D6805F435
:1024E00000351DB1504D5543056002E04D4D55433B
:1024F000056002E04B4D056000BF00BF444D6D68B4
:1025000005F0F0010909494D6B5C0568DD40456047
:102510003F4D6D6805F4E061090A444D6B5C456808
:10252000DD4085603A4D6D6805F46051C90A3F4D44
:102530006B5C4568DD40C560354D6D6805F4404114
:10254000890B3B4D6B5CC568B5FBF3F5056130BD90
:1025500029B12F4A526902432D4B5A6104E02C4A9B
:10256000526982432A4B5A61704729B1284A9269BD
:102570000243274B9A6104E0254A92698243244B27
:102580009A61704729B1224AD2690243204BDA612D
:1025900004E01F4AD26982431D4BDA61704729B1BA
:1025A0001B4AD26802431A4BDA6004E0184AD26828
:1025B0008243174BDA60704729B1154A126902430A
:1025C000134B1A6104E0124A12698243104B1A61DC
:1025D000704713494039086070471049C864704714
:1025E0000B49C87170470A48406A40F0807008493A
:1025F0004862704701460020054A92680A400AB1C5
:10260000012000E0002070470149887270470000F7
:10261000001002400000FFF8FFFFF6FE00004242FB
:102620008004424200127A0000093D00AB01002004
:10263000BB01002010B50446FB48844209D10121AA
:102640008803FFF7ACFF00214FF48040FFF7A7FF9E
:1026500032E0F648844209D101214804FFF7ACFF7B
:1026600000214FF40030FFF7A7FF25E0F048844237
:1026700009D101218804FFF79FFF00214FF480203A
:10268000FFF79AFF18E0EB48844209D10121C80402
:10269000FFF792FF00214FF40020FFF78DFF0BE0C2
:1026A000E548844208D101210805FFF785FF002194
:1026B0004FF48010FFF780FF10BD2DE9F04786B082
:1026C00005460E460024A24600BFA1460027B08959
:1026D00000B100BF2F462C8A4CF6FF700440F088F2
:1026E00004432C82AC894EF6F3100440B088318943
:1026F0000843718908430443AC81AC8A4FF6FF401C
:102700000440B0890443AC8201A8FFF7C1FEC6486B
:10271000874202D1DDF810A001E0DDF80CA0A88905
:1027200000F4004040B10AEBCA0000EB0A10316827
:102730004900B0FBF1F807E00AEBCA0000EB0A1011
:1027400031688900B0FBF1F86420B8FBF0F00401B7
:102750002009642101FB1089A88900F4004040B1E0
:10276000322000EBC900B0FBF1F000F00700044399
:1027700008E0322000EB09106421B0FBF1F000F01A
:102780000F0004432C8106B0BDE8F0874FF41651CA
:10279000016000218180C18001810C2141810021E3
:1027A0008181704710B502460020108A4FF2FF0366
:1027B00018400B884C8823438C882343CC882343C0
:1027C0001843108210BD0021018041808180C180AA
:1027D000704721B1828942F40052828104E08289EB
:1027E0004DF6FF731A4082817047F0B5034600240E
:1027F00000260025002040F66A17B94200D100BF2C
:102800001846C1F3421401F01F06012707FA06F526
:10281000012C01D10C3004E0022C01D1103000E079
:1028200014301AB107682F43076002E00768AF430E
:102830000760F0BD1AB1838A0B43838202E0838A6A
:102840008B4383827047028A4FF6F0731A400282EC
:10285000028A0A430282704782894FF2FF731A404C
:10286000828182890A438281704721B1828942F044
:102870000202828104E082894FF6FD731A40828150
:102880007047028A4FF6DF731A400282028A0A43B7
:102890000282704721B1028A42F48042028204E03F
:1028A000028A4BF6FF731A4002827047C1F3080296
:1028B0008280704701468888C0F30800704781898C
:1028C00041F0010181817047028BD2B20283028BF9
:1028D00042EA012202837047028B02F47F420283A4
:1028E000028B0A430283704721B1828A42F02002A0
:1028F000828204E0828A4FF6DF731A408282704738
:1029000021B1828A42F01002828204E0828A4FF66C
:10291000EF731A408282704721B1828A42F0080226
:10292000828204E0828A4FF6F7731A4082827047EF
:1029300021B1828942F40042828103E08289C2F39C
:102940000E028281704721B1828A42F40062828243
:1029500004E0828A4FF2FF731A4082827047828AB3
:102960004FF6FB731A408282828A0A438282704742
:1029700021B1828A42F00202828204E0828A4FF60A
:10298000FD731A408282704702460020B1F5007F35
:1029900000D100BF13880B400BB1012000E00020E4
:1029A000704701F40072B2F5007F00D100BFCA4346
:1029B0000280704770B502460024002300250020E5
:1029C00040F66A16B14200D100BFC1F3421501F0D2
:1029D0001F03012606FA03F3012D02D19689334025
:1029E00006E0022D02D1168A334001E0968A334078
:1029F0000C12012606FA04F41688344013B10CB107
:102A0000012000E0002070BD10B50022002340F638
:102A10006A14A14200D100BF0A1201249440A3B25B
:102A2000DC43048010BD0000003801400044004039
:102A300000480040004C00400050004010B501200C
:102A4000FFF7C7FD0020FFF7C4FD10BD2A4908604D
:102A500070472949091F0860704727498431086079
:102A6000704701460020254A10884FF67F421040EB
:102A70000843224A10807047014600201F4A1088F0
:102A80004FF68072104008431C4A1080704708B50A
:102A900000220092194A2C3A0092009A02440092B5
:102AA000009A116008BD08B5014600200090134847
:102AB0002C3800900098084400900098008808BDC9
:102AC0000D489C300068C0B270470C480830008840
:102AD00040F0010009490831088070470648A030DD
:102AE0000068C0B2704705480830008840F0020016
:102AF000024908310880704704860D422C6C004062
:102B000029B1504A128802434E4B1A8004E04D4AC4
:102B1000128882434B4B1A8070474A48001D008838
:102B200040F010004749091D088070474548001DC6
:102B300000884FF6EF7108404249091D0880704730
:102B4000002140481C300188001F008841EA0040F5
:102B5000704700B50246FFF7E0FF100C3949183105
:102B60000880091D0A80FFF7E1FF00BD00B502469D
:102B7000FFF7D3FFC2F30340324908310880091D33
:102B80000A80FFF7D3FF00BD00B50246FFF7C5FF7F
:102B9000100C2C4920310880091D0A80FFF7C6FF60
:102BA00000BD00202749103109880907080B254975
:102BB000143109880843704700BF2248001D00886F
:102BC00000F020000028F8D070471E48001D008843
:102BD0004FF6F77108401B49091D088000BF1948CE
:102BE000001D008800F008000028F8D0704701465A
:102BF0000020144A121D12880A400AB1012000E088
:102C0000002070470F49091D098881430D4A121D94
:102C100011807047014600200A4A121D12880A409E
:102C2000D0B2084A12880A4012B108B1012000E06F
:102C3000002070470349091D09888143014A121D7C
:102C4000118070470028004001460020FE4A1068AD
:102C500000F03800084310607047FB49096821F014
:102C60000801F94A11601146096801431160704773
:102C7000F549096821F01001F34A1160114609680D
:102C8000014311607047F148EF494860F0484860DF
:102C90007047EE48EC494860ED4848607047EA48A4
:102CA000006940F08000E84908617047E648006923
:102CB00040F08000E449086170470420E249C96897
:102CC00001F0010109B101200EE0DF49C96801F0FE
:102CD000040109B1022007E0DB49C96801F01001D5
:102CE00009B1032000E00420704700B50246042328
:102CF000FFF7E3FF034603E0FFF7DFFF0346521E43
:102D0000012B01D1002AF7D102B90523184600BDD5
:102D100030B5044604254FF43020FFF7E6FF0546A2
:102D2000042D17D1C848006940F00200C649086167
:102D300008464461006940F0400008614FF43020CB
:102D4000FFF7D3FF0546C048006941F6FD71084012
:102D5000BD490861284630BD10B504244FF4302029
:102D6000FFF7C3FF0446042C16D1B748006940F0B2
:102D70000400B54908610846006940F04000086158
:102D80004FF43020FFF7B1FF0446AF48006941F629
:102D9000FB710840AC490861204610BD00B50246F1
:102DA0000423FFF78AFF034603E0FFF786FF03468D
:102DB000521E012B01D1002AF7D102B90523184672
:102DC00000BD10B504244FF43020FFF7E7FF0446A0
:102DD000042C16D19C48006940F004009A4908610F
:102DE0000846006940F0400008614FF43020FFF7CA
:102DF000D5FF04469448006941F6FB7108409249AA
:102E00000861204610BD00208F49C96901F0020108
:102E100009B1012000E00020704730B5A525042449
:102E2000FFF7F1FF00B100254FF43020FFF75DFF01
:102E30000446042C3AD185488349886084488860D8
:102E40000846006940F0200008610846006940F02B
:102E5000400008614FF43020FFF747FF0446042C80
:102E60001BD17948006941F6DF7108407649086155
:102E70000846006940F01000086176480580E002CD
:102E8000FFF733FF0446052C10D06F48006941F668
:102E9000EF7108406C49086108E0052C06D06A48CB
:102EA000006941F6EF71084067490861204630BD6E
:102EB00078B506460C46042500200090E802FFF78E
:102EC00014FF0546042D24D15F48006940F001003D
:102ED0005D4908613480E802FFF707FF0546042DCD
:102EE00010D1B01C0090200C00990880E802FFF778
:102EF000FCFE05465448006941F6FE7108405249FF
:102F0000086106E05048006941F6FE7108404E49EC
:102F10000861284678BD70B504460D460426F002C7
:102F2000FFF7E3FE0646042E11D14748006940F042
:102F30000100454908612580F002FFF7D6FE0646EC
:102F40004148006941F6FE7108403F49086130463A
:102F500070BD70B505460E460424E002FFF7C5FEBD
:102F60000446042C17D139483749886038488860AE
:102F70000846006940F0100008612E80E002FFF76B
:102F8000B4FE0446052C06D02F48006941F6EF71C7
:102F900008402D490861204670BD2DE9F0430446E4
:102FA0004FF6FF763746B046B1460425E443E6B215
:102FB000C4F30727C4F307484FEA1469E802FFF790
:102FC00094FE0546042D49D120481F4988602048B9
:102FD00088600846006940F010000861FF2E06D0A6
:102FE0001C4808300680E802FFF77FFE0546042DE6
:102FF00008D1FF2F06D017480A300780E802FFF7F4
:1030000074FE0546042D0AD1B8F1FF0F07D0114810
:103010000C30A0F80080E802FFF767FE0546042D9B
:103020000AD1B9F1FF0F07D00A480E30A0F800907E
:10303000E802FFF75AFE0546052D0FD00248006949
:1030400041F6EF71084007E0002002402301674588
:10305000AB89EFCD00F8FF1F664908612846BDE83F
:10306000F08330B5054604244FF43020FFF73DFED1
:103070000446042C41D160485E4988605F488860FE
:103080000846006940F0200008610846006940F0E9
:10309000400008614FF43020FFF727FE0446042C5F
:1030A00022D15448006941F6DF7108405149086156
:1030B0000846006940F0100008611DB10020504929
:1030C000088002E0A5204E4908804FF43020FFF729
:1030D0000CFE0446052C10D04648006941F6EF71FD
:1030E00008404449086108E0052C06D041480069C1
:1030F00041F6DF7108403F490861204630BDF0B518
:1031000005460E46174604243B483A4988603B482A
:103110008860E002FFF7E9FD0446042C19D1354828
:10312000006940F010003349086147F0F80030436F
:1031300028433349891C0880E002FFF7D6FD044686
:10314000052C06D02B48006941F6EF71084029494B
:1031500008612046F0BD2748C069800870472548AF
:10316000006A704700202349096801F0200109B175
:10317000012000E00020704729B11E4A1269024375
:103180001C4B1A6104E01B4A12698243194B1A61F5
:10319000704701460020012908D1164AD26902F081
:1031A00001020AB1012008E0002006E0114AD268BD
:1031B0000A400AB1012000E0002070470D49C860B4
:1031C000704704200B49C96801F0010109B10120D1
:1031D0000EE00849C96801F0040109B1022007E0C6
:1031E0000449C96801F0100109B1032000E004207E
:1031F000704700000020024023016745AB89EFCDF6
:1032000000F8FF1F10B501210807FFF7D5F90021CD
:103210004FF08050FFF7D0F910BD2A49086270477F
:1032200028490861704701460020274A106820F0AD
:10323000E0000843106070472249A03108607047E1
:1032400010B502460020204B186820F00300104300
:1032500018601E4B1B6843F004031C4C23600129BB
:1032600001D130BF00E020BF184B1B6823F00403DE
:10327000164C236010BD1448006840F00400124949
:1032800008600846006840F0020008600F480068C7
:1032900040F004000D49086000BF00BF30BF704718
:1032A00001460020084A52680A400AB1012000E0A5
:1032B000002070470449096841EA8001024A116010
:1032C0007047000000000E420070004010ED00E06A
:1032D00010B50446FA48844208D101214015FFF791
:1032E0005EF900216015FFF75AF917E0F5488442AE
:1032F00008D101210015FFF752F900212015FFF731
:103300004EF90BE0F048844208D10121C803FFF7D1
:1033100046F900214FF40040FFF741F910BD30B5E8
:103320000246002000235068E84C20400D790C68CC
:1033300044EA0524204350609068E54C2040D1E9E0
:1033400002542C434D7944EA450420439060D06AEE
:1033500020F470000C7C641EE4B2234340EA035066
:10336000D06230BD00210160017141718160C16096
:1033700001210174704721B1826842F0010282602C
:1033800003E0826822F001028260704721B1826806
:1033900042F48072826003E0826822F4807282606C
:1033A000704710B50023CBB21AB144681C43446087
:1033B00002E044689C43446010BD816841F008010C
:1033C00081607047014600208A6802F008020AB155
:1033D000012000E000207047816841F00401816015
:1033E0007047014600208A6802F004020AB10120F9
:1033F00000E00020704721B1826842F4A0028260A0
:1034000003E0826822F4A002826070470146002037
:103410008A6802F480020AB1012000E000207047AF
:1034200010B50A4600210023416821F46041531E73
:1034300041EA4331416010BD21B1426842F400626B
:10344000426003E0426822F4006242607047F0B5D7
:1034500004460D4600200021092D11DDE068A5F18C
:103460000A0606EB4607072606FA07F18843A5F188
:103470000A0606EB460603FA06F10843E0600CE094
:10348000206905EB4507072606FA07F1884305EB97
:10349000450603FA06F108432061072A0FDA606B3C
:1034A000561E06EB86071F2606FA07F18843561EAE
:1034B00006EB860605FA06F10843606322E00D2A52
:1034C0000FDA206BD61F06EB86071F2606FA07F1D8
:1034D0008843D61F06EB860605FA06F108432063EB
:1034E00010E0E06AA2F10D0606EB86071F2606FA39
:1034F00007F18843A2F10D0606EB860605FA06F1F0
:103500000843E062F0BD21B1826842F4801282601B
:1035100003E0826822F48012826070470146C86C22
:1035200080B2704766484C300068704721B14268ED
:1035300042F48062426003E0426822F480624260AA
:10354000704721B1426842F48052426003E0426811
:1035500022F48052426070470A460021816821F4BB
:10356000E04111438160704721B1826842F400421A
:10357000826003E0826822F400428260704721B1D9
:10358000826842F40212826003E0826822F402122E
:1035900082607047014600208A6802F400120AB176
:1035A000012000E000207047F0B5044615460020D9
:1035B00000220026092911DDE068A1F10A0707EBC6
:1035C000470C072707FA0CF29043A1F10A0707EB13
:1035D000470703FA07F21043E0600CE0206901EBB3
:1035E000410C072707FA0CF2904301EB410703FA5D
:1035F00007F210432061A06BC0F30156EF1C06F1E7
:10360000010CA7EB0C0707EB870C1F2707FA0CF23E
:103610009043EF1C06F1010CA7EB0C0707EB8707A3
:1036200001FA07F21043A063F0BD10B50A4600216D
:103630000023816B21F44011531E41EA0351816341
:1036400010BD08B5002300930090009B0B4400932D
:10365000009B1A6008BD08B5024600200090009249
:1036600001F12800009B184400900098006880B287
:1036700008BD0A4600214168164B194011434160BC
:1036800070474162826270470A460021416821F01A
:103690001F0111434160704740B109490831096871
:1036A00041F40001064A0832116007E0044908317C
:1036B000096821F40001024A0832116070470000D5
:1036C0000024014000280140003C0140FFFEF0FFC3
:1036D000FDF7F1FFFFFD3FFF0246002013680B409E
:1036E0000BB1012000E000207047CA430260704720
:1036F00070B502460020002300240B125568CEB29C
:1037000005EA060415681D4015B10CB1012000E062
:10371000002070BD00220A12D343036070470000EE
:1037200001684FF6FE7211400160002101604160A6
:103730008160C1608D49884208D18C490839496847
:1037400041F00F01894A083A51608AE087491431F3
:10375000884208D185490839496841F0F001834A17
:10376000083A51607DE081492831884208D17F497B
:103770000839496841F470617C4A083A516070E048
:103780007A493C31884208D178490839496841F47E
:103790007041764A083A516063E07449503188427A
:1037A00008D172490839496841F470216F4A083AD2
:1037B000516056E06D496431884208D16B4908393F
:1037C000496841F47001694A083A516049E0674923
:1037D0007831884208D165490839496841F07061FB
:1037E000624A083A51603CE06149884206D1011FB3
:1037F000096841F00F01021F116032E05C49143189
:10380000884208D15A49091F096841F0F001584A15
:10381000121F116025E056492831884208D15449C9
:10382000091F096841F47061514A121F116018E0C4
:103830004F493C31884208D14D49091F096841F47C
:1038400070414B4A121F11600BE0494950318842C8
:1038500007D14749091F096841F47021444A121FE2
:103860001160704710B50022026847F6F0739A4362
:103870000C6A8B6823430C6923434C6923438C698E
:103880002343CC6923434C6A23438C6A23431A4362
:103890000260CB6843600B6883604B68C36010BDF7
:1038A0000021016041608160C1600161416181610D
:1038B000C161016241628162704721B1026842F0D8
:1038C0000102026004E002684FF6FE731A400260D3
:1038D00070471AB103680B43036002E003688B432F
:1038E00003607047416070470146486880B2704786
:1038F00001460020002201F080531BB11C4B083B05
:103900001A6802E0194B083B1A6802EA01030BB17E
:10391000012000E00020704700F0805119B11449E7
:10392000091F086002E011490839486070470146E4
:103930000020002201F080531BB10D4B083B1A6898
:1039400002E00A4B083B1A6802EA01030BB10120AE
:1039500000E00020704700F0805119B10449091FB0
:10396000086002E0014908394860704708000240D9
:103970000804024010B50446FE48844208D10121E3
:10398000C014FEF70CFE0021E014FEF708FEC4E0B0
:10399000B4F1804F08D101210846FEF70DFE002149
:1039A0000120FEF709FEB8E0F348844208D1012166
:1039B0000220FEF701FE00210220FEF7FDFDACE033
:1039C000EE48844208D101210420FEF7F5FD0021D4
:1039D0000420FEF7F1FDA0E0E948844208D101216E
:1039E0000820FEF7E9FD00210820FEF7E5FD94E040
:1039F000E448844208D101211020FEF7DDFD0021BA
:103A00001020FEF7D9FD88E0DF48844208D101216B
:103A10002020FEF7D1FD00212020FEF7CDFD7CE027
:103A2000DA48844208D101214014FEF7B8FD002194
:103A30006014FEF7B4FD70E0D548844209D101213D
:103A4000C804FEF7ACFD00214FF40020FEF7A7FDEF
:103A500063E0D048844209D101210805FEF79FFDAB
:103A600000214FF48010FEF79AFD56E0CA488442C8
:103A700009D101214805FEF792FD00214FF4001005
:103A8000FEF78DFD49E0C548844208D10121402060
:103A9000FEF792FD00214020FEF78EFD3DE0C0487C
:103AA000844208D101218020FEF786FD002180207C
:103AB000FEF782FD31E0BB48844208D10121801528
:103AC000FEF77AFD0021A015FEF776FD25E0B64849
:103AD000844209D101210804FEF761FD00214FF461
:103AE0008030FEF75CFD18E0B048844209D1012126
:103AF0004804FEF754FD00214FF40030FEF74FFD5F
:103B00000BE0AB48844208D101218804FEF747FD51
:103B100000214FF48020FEF742FD10BD00220288F4
:103B2000944B98420ED0994B98420BD0B0F1804FF5
:103B300008D0914B984205D0904B984202D0904BC0
:103B4000984204D14FF68F731A404B881A438D4B1D
:103B5000984207D08C4B984204D04FF6FF431A404E
:103B6000CB881A4302808B8883850B880385814B21
:103B700098420BD0854B984208D08B4B984205D089
:103B80008A4B984202D08A4B984201D10B7A038625
:103B900001238382704770B5002400220023058C26
:103BA0004FF6FE7635400584028C8388048B4FF6F1
:103BB0008F752C40B51E2C400D882C43751E2A4055
:103BC0000D892A434D882A436A4DA8420BD06F4D78
:103BD000A84208D0744DA84205D0744DA84202D026
:103BE000734DA84213D14FF6F7752A404D892A43E9
:103BF0004FF6FB752A408D882A434FF6FF652B4010
:103C00004FF6FF552B408D892B43CD892B43838065
:103C10000483CD888586028470BD70B5002400229F
:103C20000023058C4FF6EF7635400584028C83889F
:103C3000048B48F6FF752C404FF6FF452C400D884D
:103C40004FF6FF7606EA05252C434FF6DF752A402E
:103C50000D8906EA05152A434D8806EA05152A430B
:103C6000444DA84202D0494DA8421DD14FF67F7560
:103C70002A404D894FF6FF7606EA05152A434FF68E
:103C8000BF752A408D8806EA05152A434FF6FF3591
:103C90002B404FF2FF752B408D8906EA85052B439B
:103CA000CD8906EA85052B4383800483CD8805876B
:103CB000028470BD70B5002400220023058C4FF6ED
:103CC000FF6635400584028C8388848B4FF68F75A0
:103CD0002C404FF6FC752C400D882C434FF6FF55B9
:103CE0002A400D894FF6FF7606EA05252A434D88BE
:103CF00006EA05252A431F4DA84202D0234DA842BB
:103D00001DD14FF2FF752A404D894FF6FF7606EA26
:103D100005252A434FF6FF352A408D8806EA0525FA
:103D20002A434EF6FF752B404DF6FF752B408D89CB
:103D300006EA05152B43CD8906EA05152B4383803A
:103D40008483CD888587028470BD70B500220023EE
:103D50000024058C4EF6FF7635400584038C84885C
:103D6000828B48F6FF752A404FF6FF452A400D88A2
:103D700020E00000002C014000040040000800404A
:103D8000000C0040001000400014004000340140CE
:103D9000004C014000500140005401400018004018
:103DA000001C004000200040004001400044014051
:103DB000004801404FF6FF7606EA05252A434DF6F6
:103DC000FF752B400D8906EA05352B434D8806EA21
:103DD00005352B43FA4DA84202D0FA4DA84208D12E
:103DE0004BF6FF752C408D894FF6FF7606EA851558
:103DF0002C4384808283CD88A0F84050038470BD1A
:103E0000828B4FF2FF331A408283828B4FF6FF730F
:103E100003EA01231A4382837047F0B50C46154626
:103E2000002200210026078C4EF6FF7C07EA0C07D3
:103E30000784828B018C4FF6FF7707EA043640F641
:103E4000FF473A404FF6FF7707EA05273A434FF618
:103E5000FF7707EA03373A43D94FB8420ED0D94F1C
:103E6000B8420BD0B0F1804F08D0D74FB84205D040
:103E7000D64FB84202D0D64FB84206D14DF6FF77A2
:103E8000394046F48057394305E047F6FF5739403B
:103E900044F48057394382830184F0BD828B4FF60E
:103EA000F3731A408283828B0A4382837047F0B592
:103EB0000C461546002200210026078C4FF6FF6CA9
:103EC00007EA0C070784828B018C4FF6FF7707EA1D
:103ED00004264FF60C773A404FF6FF7707EA0317B0
:103EE0002F433A43B64FB8420ED0B64FB8420BD02C
:103EF000B0F1804F08D0B44FB84205D0B34FB842AC
:103F000002D0B34FB84206D14FF6FF57394046F4BE
:103F10008077394305E04FF2FF57394044F480770A
:103F2000394382830184F0BD028B4FF2FF331A4084
:103F30000283028B4FF6FF7303EA01231A430283C5
:103F40007047F0B50C461546002200210026078C6C
:103F50004FF6EF7C07EA0C070784028B018C4FF6C3
:103F6000FF7707EA041640F6FF473A404FF6FF771F
:103F700007EA03373A434FF6FF7707EA05273A4344
:103F80008F4FB8420ED08F4FB8420BD0B0F1804F58
:103F900008D08D4FB84205D08C4FB84202D08C4F1C
:103FA000B84206D14FF6DF77394046F01007394363
:103FB00005E04FF65F77394044F01007394302833C
:103FC0000184F0BD028B4FF6F3731A400283028B1B
:103FD0000A4302837047F0B50C46154600220021C3
:103FE000068C4FF6FE773E400684028B018C4FF61E
:103FF0000C7632407E1C06EA03162E433243704E86
:10400000B0420ED06F4EB0420BD0B0F1804F08D00E
:104010006D4EB04205D06D4EB04202D06C4EB042F3
:1040200006D14FF6FD76314044F00106314305E0FC
:104030004FF6F576314044F00106314302830184A6
:10404000F0BD70B505460C465D4885420ED05D4812
:1040500085420BD0B5F1804F08D05B48854205D032
:104060005A48854202D05A48854200D100E000BF3C
:10407000208850B92389A28861882846FFF7ABFFC2
:10408000E1882846FFF79EFF25E0208804280AD112
:104090002389A28861882846FFF753FFE1882846D4
:1040A000FFF742FF17E0208808280AD12389A28859
:1040B00061882846FFF7FBFEE1882846FFF7EEFE01
:1040C00009E02389A28861882846FFF7A6FEE188D7
:1040D0002846FFF795FE70BD2DE9F04105460C46D8
:1040E00000260127608808B9022600E00026A08883
:1040F000012801D1022700E001272088A0B92389E7
:10410000A28861882846FFF766FFE1882846FFF706
:1041100059FF23893A4631462846FFF712FFE188C6
:104120002846FFF701FF13E02389A288618828460B
:10413000FFF707FFE1882846FFF7F6FE23893A4696
:1041400031462846FFF747FFE1882846FFF73AFF48
:10415000BDE8F0810A884B881A438B881A43CB88C4
:104160001A430B891A434B891A438B891A43A0F8C7
:10417000442070474FF6FF71818000210180C1808B
:104180004180017270470021018041808180C1809F
:10419000018141818181C18170470021018041807D
:1041A000012181800021C1800181704700210180AF
:1041B00041808180C18001814181818170470000FF
:1041C000002C014000340140000400400008004081
:1041D000000C004021B1028842F00102028004E09C
:1041E00002884FF6FE731A400280704731B1B0F872
:1041F000442042F40042A0F8442005E0B0F84420F6
:10420000C2F30E02A0F8442070471AB183890B4311
:10421000838102E083898B43838170478182704769
:1042200041EA0203A0F8483070471AB183890B4372
:10423000838102E083898B438381704701894FF634
:10424000F8721140018170470A46002101894FF63A
:104250008F73194011430181704730B504460D46F4
:1042600029462046FFF7F0FF208940F00700208113
:1042700030BD2DE9F04104460D4616461F46602D1F
:1042800006D13B46012231462046FFF75AFE05E0A3
:104290003B46012231462046FFF79DFE2946204637
:1042A000FFF7D2FF208940F007002081BDE8F081B0
:1042B00030B50C4600210189C9B24FF6FF7505EAF9
:1042C0000325154325432943018130BD2DE9F041E4
:1042D00005460E4617469846002443463A46314660
:1042E0002846FFF7E5FF2C894FF6F870044044F0AC
:1042F00007044FF68F70044044F070042C81BDE831
:10430000F081F0B504460D4616461F463B46324640
:1043100029462046FFF7CCFF208940F480402081C9
:10432000F0BD0185828270470A46002101884FF660
:104330008F731940114301807047F0B50C46154644
:104340001E460021002200230189028B038C4FF6B8
:10435000F877394021434FF6FC473A4040F20117C5
:104360003A434FF6DD773B404FF6FF7707EA0617F3
:104370002F433B43018102830384F0BD0A460021A1
:10438000018B4FF68F7319401143018370470A4622
:104390000021018B48F6FF7319404FF6FF7303EAC3
:1043A00002231943018370470A460021818B4FF68F
:1043B0008F7319401143818370470A460021818B16
:1043C00048F6FF7319404FF6FF7303EA02231943BF
:1043D0008183704721B1028842F08002028004E0AC
:1043E00002884FF67F731A400280704721B182889D
:1043F00042F00402828004E082884FF6FB731A4088
:104400008280704721B1828842F00802828004E0F5
:1044100082884FF6F7731A408280704721B18288F4
:1044200042F00102828004E082884FF6FE731A4057
:10443000828070470A460021018B4FF6F7731940BE
:104440001143018370470A460021018B4FF2FF732D
:1044500019404FF6FF7303EA0223194301837047A3
:104460000A460021818B4FF6F7731940114381836F
:1044700070470A460021818B4FF2FF7319404FF6B7
:10448000FF7303EA02231943818370470A46002120
:10449000018B4FF6FB7319401143018370470A46A5
:1044A0000021018B4FF6FF3319404FF6FF7303EAEB
:1044B00002231943018370470A460021818B4FF67E
:1044C000FB7319401143818370470A460021818B99
:1044D0004FF6FF3319404FF6FF7303EA02231943E7
:1044E000818370470A460021018B4FF67F73194084
:1044F0001143018370470A460021018BC1F30E016D
:104500004FF6FF7303EA02231943018370470A46FB
:104510000021818B4FF67F731940114381837047CF
:104520000A460021818BC1F30E014FF6FF7303EAA7
:1045300002231943818370470A460021018C4FF6FC
:10454000FD7319401143018470470A460021018C14
:104550004FF6F77319401143018470470A46002152
:10456000018C4FF6DF7319404FF6FF7303EA021315
:104570001943018470470A460021018C4FF67F736E
:1045800019404FF6FF7303EA021319430184704781
:104590000A460021018C4FF6FF5319404FF6FF7376
:1045A00003EA02231943018470470A460021018C63
:1045B0004FF2FF7319404FF6FF7303EA02231943CA
:1045C000018470470A460021018C4DF6FF731940A3
:1045D0004FF6FF7303EA023319430184704730B585
:1045E000002301248C40A3B2048C9C430484048CDB
:1045F00002FA01F5ADB22C43048430BD30B500237E
:1046000004248C40A3B2048C9C430484048C02FADE
:1046100001F5ADB22C43048430BD70B503460020D3
:1046200000241846183001258D40ACB21D8CA543DE
:104630001D8409B1082909D100EB6100056825F046
:10464000700505600568154305600EE00D1FC5F394
:104650004E052844056825F4E045056005684FF6D9
:10466000FF7606EA02263543056070BD21B1028857
:1046700042F00202028004E002884FF6FD731A4005
:104680000280704721B1028842F00402028004E0F7
:1046900002884FF6FB731A400280704721B182886E
:1046A00042F08002828004E082884FF67F731A40D5
:1046B0008280704702884FF6F7731A4002800288A2
:1046C0000A430280704782884FF68F731A408280B7
:1046D00082880A438280704702894FF6F8731A4035
:1046E000028102890A430281704702894FF67F7373
:1046F0001A40028102890A4302817047818470470F
:104700008185704781867047018770478187704730
:10471000A0F84010704702884FF6FF431A4002800D
:1047200002880A43028070470146888E704701461E
:10473000088F70470146888F70470146B1F84000E6
:1047400070470146888C70470146088D70470246C5
:104750000020138A0B400BB1012000E000207047BD
:10476000CA430282704730B502460020002300246D
:10477000158A05EA0103958905EA010413B10CB114
:10478000012000E0002030BDCA43028270470000D3
:104790000246302A05DB392A03DCA2F13003DAB203
:1047A0000EE0412A05DB462A03DCA2F13703DAB228
:1047B00006E0612A04DB662A02DCA2F15703DAB2C2
:1047C00002F00F000001302905DB392903DCA1F1DB
:1047D0003003D9B20EE0412905DB462903DCA1F103
:1047E0005703D9B206E0612904DB662902DCA1F196
:1047F0005703D9B201F00F03184370470146002256
:1048000009B900207047002200E0521C11F8013B5A
:10481000002BFAD11046F5E730B503460C46194691
:104820000BB9002030BD01E001F8014B101EA2F1D0
:104830000105AAB2F8D11846F4E7F0B505460E46D0
:1048400013462A46344605B10EB90020F0BDA242F7
:1048500002D9E018904208D2002103E0605C505475
:10486000481C81B29942F9DB07E0194603E0481E73
:10487000275C175481B20029F9DC2846E6E7024696
:1048800002B109B900207047134603E011F8010B8B
:1048900002F8010B08780028F8D110701846F2E7EA
:1048A000024601E0521C491C107828B1087818B162
:1048B00010780B789842F5D010780B78C01A7047B2
:1048C000020E0A70020C4A70020A8A70C8707047A1
:1048D00001460020087800024A78104300028A78D6
:1048E00010430002CA78104370472DE9F041064694
:1048F000884614460027F7480078012801D1BDE812
:10490000F0813146384600F087FC074600213846E2
:1049100000F082FC07462546E01704EB1060C0F368
:104920000721384600F078FC0746E01704EB1060DA
:104930000012A4EB0020C1B2384600F06DFC07461F
:1049400022464146384600F06DFC07463A460321B0
:10495000072000F098FC0120D1E770B504460D4611
:104960000026DC480078012800D170BD2146304681
:1049700000F052FC06460121304600F04DFC064690
:104980000021304600F048FC06460121304600F088
:1049900043FC06462DB90021304600F03DFC06469A
:1049A00004E00121304600F037FC06463246032180
:1049B000072000F068FC0120D7E770B505460C46DB
:1049C0000026C4480078012800D170BD2946304631
:1049D00000F022FC06460221304600F01DFC06468F
:1049E0000021304600F018FC06460421304600F055
:1049F00013FC0646210E304600F00EFC0646C4F3BA
:104A00000741304600F008FC0646C4F30721304653
:104A100000F002FC0646E1B2304600F0FDFB06461F
:104A200032460321072000F02EFC0120CDE72DE9BE
:104A3000F0410646884614460027A648007801281B
:104A400001D1BDE8F0813146384600F0E5FB07466C
:104A50000321384600F0E0FB07462546E01704EB4B
:104A60001060C0F30721384600F0D6FB0746E01778
:104A700004EB10600012A4EB0020C1B2384600F035
:104A8000CBFB074622464146384600F0CBFB0746A3
:104A90003A460321072000F0F6FB0120D1E770B56C
:104AA00004460E4600258B480078012800D170BDD1
:104AB0002146284600F0B0FB05460421284600F0B8
:104AC000ABFB05460021284600F0A6FB0546012168
:104AD000284600F0A1FB05463146284600F09CFB25
:104AE00005462A460321072000F0CDFB0120DEE722
:104AF00070B505460C46002676480078012800D19E
:104B000070BD2946304600F087FB06460521304639
:104B100000F082FB06460021304600F07DFB064691
:104B200044F0FF00FF280AD10121304600F074FB59
:104B30000646E1B2304600F06FFB064632E04FF623
:104B4000FF7020434FF6FF71884210D1022130469A
:104B500000F062FB0646C4F30721304600F05CFB20
:104B60000646E1B2304600F057FB06461AE0042143
:104B7000304600F051FB0646210E304600F04CFB5B
:104B80000646C4F30741304600F046FB0646C4F330
:104B90000721304600F040FB0646E1B2304600F007
:104BA0003BFB064632460321072000F06CFB012048
:104BB000A6E702461078704702461078704710B595
:104BC00003460C461846FFF783FE10BD42490968AC
:104BD000424A1268891A01291FD0404909683E4A91
:104BE0001268914208D93D4909683B4A1268891AFE
:104BF00040F20742914210D238490A6838498A4245
:104C000003D3A1F20741354A11603449096808709D
:104C100032490968491C314A1160704730B5044671
:104C20000D46002300BF04E0E05CFFF7CFFF581CF7
:104C300083B2AB42F8DB30BD70B50024002509E03B
:104C400000F053FD27490A880988491C254B198023
:104C5000254988542348008840F20741884203D2FE
:104C600000F039FD0028EBDC1E480088072800DA38
:104C700070BD50E01C48005D552802D0601C84B215
:104C800049E01949601C085CAA2802D0601C84B263
:104C900041E01549A01C085C10B1A01C84B23AE0A8
:104CA0001149201D085C4FF6FF7101EA00250E49ED
:104CB000601D085CC01D284485B240F20E4085424C
:104CC00002D9E01C84B226E006480088001BA842F6
:104CD0000CDA25E0E0030020DC030020D8030020EC
:104CE0001A0E0020C00100200C0600206A1E91B29E
:104CF000474A101900F0A7FA6119491E444A515C4D
:104D0000884202D0E01C84B205E0204600F005FC99
:104D1000601984B200BF3F480088001B0728A9DA49
:104D200000BF3C480088001B3A49088008460088BC
:104D3000002806DD36480119364802883448FFF756
:104D40007CFD00BF94E7344834490860344908606A
:104D5000002034490870FF203349087070473348F9
:104D60000078704710B500203049087000220321F8
:104D7000042000F088FA10BD2D480078704770B507
:104D80000446002500202A4908702146284600F0E4
:104D900043FAC5B22A460321052000F074FA70BD1B
:104DA00021480078704710B5002203211C2000F034
:104DB0006AFA10BD70B5044600250121284600F0AE
:104DC0002BFA05462146284600F026FA05462A46D3
:104DD0000321342000F057FA70BD10B500240321E0
:104DE000204600F019FA044622460321342000F040
:104DF0004AFA10BD10B500240421204600F00CFA38
:104E0000044622460321342000F03DFA10BD000084
:104E10000C060020C0010020130A0020D803002047
:104E2000DC030020E0030020E3030020E103002076
:104E3000E203002010B5044600BF8021E348FDF7DF
:104E4000A3FD0028F9D02146E048FDF72FFD10BD55
:104E500070472DE9F04104460D4629462046FFF7EC
:104E6000AEFE074639461020FFF7A7FD0646012E85
:104E700001D1BDE8F0810020FBE72DE9F0410646B5
:104E80000F4639463046FFF794FE05462DB90120FE
:104E9000CF498870FBF7D0FC04E00020CC49887033
:104EA000FBF7CAFC29461520FFF757FD0446012CE5
:104EB00001D1BDE8F0810020FBE72DE9F041064675
:104EC0000F4639463046FFF774FE05462DB90120DE
:104ED000BF490870FBF7CEFC04E00020BC49087015
:104EE000FBF7C8FC29466520FFF737FD0446012C77
:104EF00001D1BDE8F0810020FBE72DE9F041044637
:104F00000D4629462046FFF754FE074639466620DF
:104F1000FFF723FD0646012E01D1BDE8F0810020F8
:104F2000FBE72DE9F04106460F4639463046FFF7CC
:104F300043FE054635B1012D05D0022D04D0032DC9
:104F400004D102E003E002E001E000E000BF00BFA6
:104F500029466720FFF7A3FD0446012C01D1BDE8D7
:104F6000F0810020FBE72DE9F04105460E4617468B
:104F7000652D16D004DC102D07D0152D23D10AE0A5
:104F8000662D14D0672D1ED117E039463046FFF745
:104F900060FF044618E039463046FFF76EFF0446CE
:104FA00012E039463046FFF788FF04460CE03946E8
:104FB0003046FFF7A2FF044606E039463046FFF7C9
:104FC000B0FF044600E000BF00BF2046BDE8F0810E
:104FD0000B2070477CB50446207801280DD1A079BC
:104FE0006179CDE9001025790835EBB2E278A17836
:104FF000657805F5FA60FCF74FFC7CBD7FB50024B1
:1050000000200090019002900390002600250426C5
:1050100000BF13E06F4850F824206FA10DF101008C
:1050200001F088FAC0B28DF800009DF80000421C23
:105030006946284600F0F6F80546641CB442E9DBF0
:10504000012267A10DF1010001F074FAC0B28DF8E0
:1050500000009DF80000421C6946284600F0E2F876
:1050600005462A460321202000F00DF97FBD0128C6
:1050700000D000BF70472DE9F0438DB080460E464A
:10508000144699460027322200216846FFF7C4FBE8
:105090005EB920780006617840EA0140A17840EAD4
:1050A0000120E17840EA010505E0012E03D1214607
:1050B0006846FFF7E4FB4DA14046FFF7F1FB28B936
:1050C000A9B245F20800FBF753FA2DE049A140468A
:1050D000FFF7E6FB28B9A9B245F20A00FBF748FA48
:1050E00022E047A14046FFF7DBFB28B9A9B245F211
:1050F0000C00FBF73DFA17E043A14046FFF7D0FB59
:1051000090B901E0781CC7B207EB4700414A02EBB7
:105110008001684600F05CFB0028F3D13846FBF7BD
:1051200035FC3846FBF78DFC0DB0BDE8F0832DE96A
:10513000FC4105460C462E78062E43D2DFE806F0E9
:105140004203081F2327022C01D0BDE8FC813AE06E
:10515000092C00D0F9E795F80180A01E82B2A91CA5
:105160006846FFF76AFB00273146384600F054F8DE
:1051700007463A460321342000F085F823E0022C4C
:1051800000D0E2E71FE0022C00D0DEE71BE0022C9B
:1051900000D0DAE7687820B1012803D0022803D1D3
:1051A00001E002E001E000E000BF00BF002731465F
:1051B000384600F031F807463A460321342000F023
:1051C00062F800E000BF00BF00BFBEE7004400403F
:1051D00018000020C8030020772E2573000000006F
:1051E000772E646174652E256400000074656D700F
:1051F0000000000068756D69646974790000000042
:10520000706D323500000000636F6E646974696F01
:105210006E000000C4010020FB4B1A181170431CE3
:1052200098B270472DE9F04104460E461546F648FF
:1052300007192A4631463846FFF7FFFA601984B24B
:105240002046BDE8F08130B502460020002305E08D
:1052500012F8015B2C18E0B25C1CA3B28B42F7DBA6
:1052600030BD70B504460D4604B105B970BD03E00C
:105270002078FFF7DFFD641C281EA5F101018DB227
:10528000F6D100BFF2E72DE9F04105460E4614467F
:1052900000275520DC49891F0870AA20487008465D
:1052A0008670C570201208714C71E01D84B2601EBA
:1052B00081B2D548801FFFF7C6FF0746601ED2495E
:1052C000891F0F542146D048801FFFF7CAFFBDE851
:1052D000F08110B50024CD48007840B90021204667
:1052E000FFF79AFFC4B20120C849087004E0012109
:1052F0002046FFF791FFC4B2224603210020FFF7AA
:10530000C2FF10BD3EB50024002000900190029025
:10531000BFA0FFF773FA85B22A46BDA12046FFF76A
:1053200081FFC4B2BCA0FFF769FA85B22A46BAA1D0
:105330002046FFF777FFC4B2BCA0FFF75FFA85B243
:105340002A46BAA12046FFF76DFFC4B2B9A0FFF705
:1053500055FA85B22A46B7A12046FFF763FFC4B2CB
:10536000B6A0FFF74BFA85B22A46B4A12046FFF754
:1053700059FFC4B2B3A0FFF741FA85B22A46B1A1E2
:105380002046FFF74FFFC4B20022AFA1684601F0EC
:10539000D1F86846FFF732FA85B22A4669462046B8
:1053A000FFF740FFC4B2ABA0FFF728FA85B22A4648
:1053B000A8A12046FFF736FFC4B2224603210120F0
:1053C000FFF761FF3EBD10B50024224603210220F5
:1053D000FFF759FF10BD70B50546FFF7F9FD06460A
:1053E000002407E09C4810F81400A84200D103E014
:1053F000601CC4B2B442F5DB00BF204670BD2DE98D
:10540000F0470446267894F80180A0784FF6FF71A3
:1054100001EA0025E078284485B23046FFF7DBFF3B
:1054200007468D4800EB47004078404502D00020F9
:10543000BDE8F0872A46211D3046FFF794FD8146DE
:105440004846F5E72DE9F04F9DB004468846012512
:105450000027002019901A901B901C90834600266C
:105460006421684600F0A2F94FF000094FF0000AED
:10547000207801284FD1B8F1010F4CDB44E0675D83
:105480000F22002119A8FFF7C7F9B81E82B26019D0
:10549000411C19A8FFF7D1F9E819205C303800F059
:1054A000FF0B681C3844265C26B1012E02D01DB0CB
:1054B000BDE8F08F642200216846FFF7ADF9681C53
:1054C000384400F1010914F809A04EB904EB0900B1
:1054D000421CF1B25B460DF16600FFF7CCFD10E017
:1054E000012E0ED11FFA8AF204EB0900411C684616
:1054F000FFF7A3F9F1B25B466A460DF16600FFF7CC
:10550000BAFDF81C504405444545B8DB002211465D
:105510002120FFF7B8FE00BFC9E72DE9F047044698
:105520004E49E01C11F80080B8F1060F42D007DCAC
:10553000B8F1060F64D2DFE808F015181B1E3539E4
:10554000B8F1200F5DD006DCB8F1080F5AD0B8F1E1
:105550001C0F55D18FE0B8F1210F54D0B8F1340FA2
:10556000F7D1A5E0FFF7B5FEB2E0FFF7CBFEAFE065
:10557000FFF729FFACE03949A01D085C38490870E5
:10558000002203210846FFF77EFE354800780328F5
:1055900007D13448007820B9FFF730FD01203149A8
:1055A000087095E001203049087091E001202F49F2
:1055B00008708DE02949601D095C284A201D105C97
:1055C00041EA0026002518E0A01D2844801C23493C
:1055D000085C4FF6FF7101EA0027A01D2844C01C9B
:1055E0001E49085C384487B22144891D4819FFF7D9
:1055F00006FF8146381D284485B2B542E4DB67E0EA
:1056000065E03EE034E044E0200E0020E4030020AA
:105610007B2270223A220000787434686E706677BC
:10562000677771747A617A6600000000222C227616
:10563000223A2200312E302E30000000222C226D22
:10564000223A0000320000002C226C6F77223A25AB
:10565000640000007D000000B08600080C060020F9
:10566000E3030020E5030020E1030020E203002023
:10567000FFF7EEFB2CE029492144881DFFF7AAFC27
:1056800026E0264BE21D995CA21D985CFFF7EFFC1B
:105690001EE02249601D095C204A201D105C41EA81
:1056A000002611462144881D3146FFF7CBFE0FE04E
:1056B0001A49601D095C194A201D105C41EA002648
:1056C00011462144881D3146FFF731FD00E000BF3F
:1056D00000BFBDE8F0871248006812490968884297
:1056E00001D0012070470020FCE70E4909680C4AF0
:1056F0001268914210D00B490A680B498A4203D3C1
:10570000A1F20741074A116006490968087805496E
:105710000968491C034A1160704700000C0600200C
:10572000D8030020DC0300201A0E002001460020D0
:10573000704730B50B46014600202022012409E0C5
:1057400021FA02F59D4205D303FA02F5491B04FA3A
:1057500002F52844151EA2F10102F1DC30BD10B59E
:10576000431A934209D28318881803E010F8011DE8
:1057700003F8011D521EF9D210BD40EA01039B0738
:1057800003D009E008C9121F08C0042AFAD203E0B6
:1057900011F8013B00F8013B521EF9D210BDD2B204
:1057A00001E000F8012B491EFBD270470022F6E70A
:1057B00010B513460A4604461946FFF7F0FF204687
:1057C00010BD421C10F8011B0029FBD1801A704744
:1057D00010B5002200E0521C835C8C5CA34201D116
:1057E000002BF8D1D8B2E1B2401A10BDCBB203E021
:1057F0000178994203D0401C521EF9D20020704714
:10580000034611F8012B00F8012B002AF9D11846A4
:10581000704700F0EDBA2DE9FE4F804681EA0300A3
:10582000C00F0C46009021F0004123F00045B8EB7A
:105830000200A94105D24046214690461C460B462F
:10584000024623F00040104347D0270DC7F30A005B
:10585000C3F30A510290401A019040286BDAC3F357
:10586000130040F4801B0098924620B10023D2EB35
:10587000030A63EB0B0B01985946C0F140025046F6
:1058800000F037FA06460D4650465946019A00F098
:105890004FFA10EB08006141002487EA115284EAB4
:1058A000E7731A4340D0009A62B3019A012A4FEA83
:1058B000075215DC001B61EB02014FF0004202EAC7
:1058C0000752CDE90042001C41F5801132462B46BB
:1058D00000F01CFB03B0BDE8F08F40462146F9E71D
:1058E000001B61EB0201001C41F5801300185B41B5
:1058F0002018A2F5001747EB030140EAD570B6194E
:105900006D4111E06D084FEA360645EAC0754FEA71
:105910000752001B61EB0201001C41F58011490890
:105920004FEA30000019514132462B4603B0BDE822
:10593000F04F00F0DCBA0098012240000023D0EBC9
:10594000020263EBE073009821464FEAE074B8EB83
:10595000000061EB0401E9E783F000435BE781F0BD
:10596000004158E72DE9FE4F81EA030404F00044AA
:1059700021F0004100944FF0000B23F0004350EA67
:1059800001045ED052EA03045BD0C3F30A54C1F3AE
:105990000A552C44A4F2F3340194A0FB0254C1F341
:1059A000130141F48011C3F3130343F4801301FB8B
:1059B000024400FB034E840A970A44EA815447EAF2
:1059C0008357A4FB076802958D0A05FB07854FEAFC
:1059D000932C04FB0C542705029D4FEA065847EA16
:1059E0001637B5EB08056EEB070C870E920E47EAEB
:1059F000811742EA8312A7FB0201B6EB0B0164EBAD
:105A000000042B0D43EA0C335E1844EB1C50DA46BD
:105A10005146E7FB0201C5F313044FEA0B3343EA97
:105A200014534FEA0432019C43EA0603A4F10C0428
:105A30000294009CCDE900B400F068FA03B0BDE820
:105A4000F08F00200146F9E72DE9F04D81EA0304CB
:105A500004F0004B21F0004514464FF0000A23F0FB
:105A6000004150EA050220D054EA01021DD0C5F3DE
:105A70000A570246C5F31303C1F31300C1F30A56D4
:105A800040F4801543F48013A7EB0608101BD6469C
:105A900008F2FD3873EB050002D308F1010801E0BC
:105AA00092185B41B8F1000F03DA00200146BDE80F
:105AB000F08D00204FF48011064684460EE0171B3F
:105AC00073EB050705D3121B63EB050306434CEA92
:105AD000010C49084FEA300092185B4150EA010777
